:1000000029C0000042C0000040C000003EC0000007
:100010003CC000003AC0000038C0000040C10000F1
:1000200034C0000032C0000030C000002EC000000C
:100030002CC000002AC0000028C0000026C000001C
:1000400024C0000022C0000020C000001EC000002C
:100050001CC0000011241FBECFE5D8E0DEBFCDBF1D
:1000600010E0A0E6B0E0E6E5F4E002C005900D92F5
:10007000AA3CB107D9F720E0AAECB0E001C01D927C
:10008000AE3DB207E1F79BD0E4C1BACF959A00002C
:1000900000000000000000009598089514BA929A9C
:1000A0009698AF9B03C0F2DFAF99FDCF8FEF84BB73
:1000B00092980895CF93C82FF1DF96980000000022
:1000C000C5BB87EC90E00197F1F700C00000DEDFD0
:1000D00015BA87EC90E00197F1F700C00000CF91CE
:1000E00008958FEF84BB81B3846681BB92982FEF14
:1000F00080E792E0215080409040E1F700C000008E
:1001000081E0D8DF8FE39FE10197F1F700C00000A5
:1001100088E3D0DF87EC90E00197F1F700C00000A2
:100120008EE0C8DF87EC90E00197F1F700C0000097
:100130000895CF93DF9300D000D0CDB7DEB71982FA
:1001400090E49A8394E19B8394E59C83FE01E80FFD
:10015000F11D8181860F8058ADDF87EC90E001971B
:10016000F1F700C000000F900F900F900F90DF91FB
:10017000CF910895CF93C82F91DF969A0000000089
:10018000C5BB87EC90E00197F1F700C000007EDF6F
:1001900015BA87EC90E00197F1F700C00000CF910D
:1001A0000895CF93DF93EC01888118162CF42196E3
:1001B000E1DF89911816E4F3DF91CF91089580E88B
:1001C00084BF84BF87B3807F87BB88B38F6088BBC1
:1001D0008EB58B608EBD8AEF90E09BBD8ABD89B7DE
:1001E000806189BF78948F9A7CDF8091CC00909158
:1001F000CD00892B39F082B3805882BB1092CD009C
:100200001092CC008091D4009091D500892B39F0C8
:1002100060E080E08EDF80E690E0C3DF06C060E053
:1002200080E087DF80E790E0BCDF8091D200909192
:10023000D300892B39F060E081E07BDF8CE790E030
:10024000B0DF06C060E081E074DF8DE890E0A9DFF8
:100250008091D0009091D100892B39F060E082E04C
:1002600068DF8AE990E09DDF06C060E082E061DF40
:1002700087EA90E096DF8091CE009091CF00892BA5
:1002800039F060E083E055DF80EB90E08ADFADCFAE
:1002900060E083E04EDF8FEB90E083DFA6CF1F921C
:1002A0000F920FB60F9211242F938F939F938091EB
:1002B000CA009091CB0001969093CB008093CA0026
:1002C0008091CA009091CB00843F914054F081E02E
:1002D00090E09093CD008093CC001092CB001092D0
:1002E000CA00B09916C08091DC009091DD000196A3
:1002F0009093DD008093DC008091DC009091DD0024
:100300004497DCF081E090E09093D5008093D40096
:1003100014C01092D5001092D4008091DC0090910E
:10032000DD00181619064CF48091DC009091DD0078
:1003300001979093DD008093DC00B19916C0809105
:10034000DA009091DB0001969093DB008093DA0055
:100350008091DA009091DB004497DCF081E090E03E
:100360009093D3008093D20014C01092D3001092C7
:10037000D2008091DA009091DB00181619064CF437
:100380008091DA009091DB0001979093DB008093DD
:10039000DA00B29916C08091D8009091D9000196E8
:1003A0009093D9008093D8008091D8009091D90083
:1003B0004497DCF081E090E09093D1008093D000EE
:1003C00014C01092D1001092D0008091D80090916A
:1003D000D900181619064CF48091D8009091D900D4
:1003E00001979093D9008093D800B39916C080915B
:1003F000D6009091D70001969093D7008093D600B5
:100400008091D6009091D7004497DCF081E090E095
:100410009093CF008093CE0014C01092CF00109222
:10042000CE008091D6009091D700181619064CF492
:100430008091D6009091D70001979093D700809338
:10044000D6009F918F912F910F900FBE0F901F900C
:060450001895F894FFCF9F
:10045600456E746572205452554520202020200098
:10046600456E7465722046414C53450043616E6388
:10047600656C205452554520202020200043616E93
:1004860063656C2046414C534500555020545255E7
:100496004520202020200055502046414C53450041
:1004A600444F574E205452554520202020200044CA
:0A04B6004F574E2046414C534500BD
:00000001FF
