S0160000496E74657276616C6F6D657465722E737265633D
S113000029C0000037C0000035C0000033C0000024
S113001031C000002FC000002DC0000039C0000016
S113002029C0000027C0000025C0000023C0000034
S113003021C000001FC000001DC000001BC0000044
S113004019C0000017C0000015C0000013C0000054
S113005011C0000011241FBECFE5D8E0DEBFCDBF24
S113006020E0A0E6B0E001C01D92A236B207E1F79D
S113007002D034C0C5CFA09A8EB58D608EBD87EEF8
S113008091E09BBD8ABD89B7806189BF7894FFCF19
S11300901F920F920FB60F9211248F939F9380910A
S11300A060009091610001969093610080936000DC
S11300B005976CF0A89A87EA91E60197F1F700C0DA
S11300C0000085B315BA10926100109260009F91F0
S11300D08F910F900FBE0F901F901895F894FFCF3B
S9030000FC
