:1000000029C0000042C0000040C000003EC0000007
:100010003CC000003AC0000038C00000F3C100003E
:1000200034C0000032C0000030C000002EC000000C
:100030002CC00000DFC2000028C0000026C0000065
:1000400024C0000022C0000020C000001EC000002C
:100050001CC0000011241FBECFE5D8E0DEBFCDBF1D
:1000600010E0A0E6B0E0EAE4F6E002C005900D92F0
:10007000A03CB107D9F720E0A0ECB0E001C01D9290
:10008000A53DB207E1F741D1DEC2BACFCF93DF93EE
:10009000EC018091C0008230C1F128F4882351F036
:1000A0008130C1F08DC0833009F453C0843009F42D
:1000B00073C086C021D160E080E0D8D087E690E0B0
:1000C0000DD1219721F481E08093C00079C0109276
:1000D000C00076C011D160E080E0C8D08CE690E02E
:1000E000FDD0C230D10531F0C430D10531F02197B7
:1000F00041F466C01092C00063C082E08093C000EB
:100100005FC081E08093C0005BC0F6D060E080E01B
:10011000ADD080E790E0E2D0C230D10559F024F4B0
:10012000219709F44DC011C0C330D10531F0249797
:1001300041F00BC01092C00043C081E08093C0002A
:100140003FC083E08093C0003BC082E08093C0004A
:1001500037C0D2D060E080E089D085E790E0BED0A3
:10016000C230D10551F01CF4219751F111C0C330B8
:10017000D10531F0249741F00BC01092C00020C08F
:1001800082E08093C0001CC084E08093C00018C04F
:1001900083E08093C00014C0AFD060E080E066D000
:1001A0008BE790E09BD0C230D10521F034F0259749
:1001B0003CF003C01092C00003C084E08093C000F4
:1001C000DF91CF910895959A000000000000000093
:1001D00000009598089514BA929A9698AF9B03C020
:1001E000F2DFAF99FDCF8FEF84BB92980895CF9344
:1001F000C82FF1DF969800000000C5BB87EC90E0A7
:100200000197F1F700C00000DEDF15BA87EC90E03F
:100210000197F1F700C00000CF9108958FEF84BBE4
:1002200081B3846681BB92982FEF80E792E02150E2
:1002300080409040E1F700C0000081E0D8DF8FE30C
:100240009FE10197F1F700C0000088E3D0DF87EC61
:1002500090E00197F1F700C000008EE0C8DF87EC66
:1002600090E00197F1F700C000000895CF93DF936D
:1002700000D000D0CDB7DEB7198290E49A8394E124
:100280009B8394E59C83FE01E80FF11D8181860F1D
:100290008058ADDF87EC90E00197F1F700C00000D7
:1002A0000F900F900F900F90DF91CF910895CF9303
:1002B000C82F91DF969A00000000C5BB87EC90E044
:1002C0000197F1F700C000007EDF15BA87EC90E0DF
:1002D0000197F1F700C00000CF910895CF93DF930D
:1002E000EC01888118162CF42196E1DF899118160B
:1002F000E4F3DF91CF91089581E079DF8FE39FE10F
:100300000197F1F700C00000089580E884BF84BF22
:1003100010BC89E189B98AB188698AB980B58668D3
:1003200080BD87B3807F87BB88B38F6088BB8EB565
:100330008C608EBD81E792E09BBD8ABD89B78061EC
:1003400089BF78948F9A6ADF8091640090916500EC
:100350009093C9008093C8008091620090916300DF
:100360009093C7008093C6008091600090916100D7
:100370009093C5008093C4002FEF89E698E1215047
:1003800080409040E1F700C000008091CC00909147
:10039000CD00892B31F06FE080E068DF8091CE00E6
:1003A00086DF8091D1009091D200892B21F01092AC
:1003B000D2001092D1008091C100823069F018F40F
:1003C000813031F015C0833059F0843069F010C0AD
:1003D00080E890E02AD10FC088E890E026D10BC0D9
:1003E00081E990E022D107C086E990E01ED103C0E8
:1003F0008DE990E01AD18091C10090E047DE109223
:10040000C100BACF1F920F920FB60F9211242F93F3
:100410003F934F935F936F937F938F939F93AF938C
:10042000BF93EF93FF938091CF009091D0000196FE
:100430009093D0008093CF008091CF009091D00016
:100440000A976CF081E090E09093D2008093D10005
:100450001092D0001092CF0082B3805882BB80915E
:100460006600811163C08091C8009091C900019716
:100470009093C9008093C8008091C8009091C900F2
:10048000181619069CF08091C6009091C70001973C
:100490009093C7008093C6008091C200811106C06E
:1004A00084EA90E0C2D081E08093C2008091C600CF
:1004B0009091C700181619069CF08091C400909185
:1004C000C50001979093C5008093C4008091C3003C
:1004D000811106C080EB90E0A8D081E08093C3003A
:1004E0008091C4009091C50018161906FCF0809107
:1004F0006400909165009093C9008093C80080913A
:100500006200909163009093C7008093C600809131
:100510006000909161009093C5008093C400109298
:10052000C2001092C30088EB90E07FD086B390E0C9
:10053000809590958F709927181619060CF041C078
:100540008091D3009091D40001969093D400809331
:10055000D3008091D3009091D4000597D4F180917D
:10056000CA009091CB00892BA1F586B390E08095CD
:1005700090958F7099278230910571F01CF4019746
:1005800039F016C08430910559F0089769F010C011
:1005900081E08093C1000EC082E08093C1000AC058
:1005A00083E08093C10006C084E08093C10002C054
:1005B0001092C10081E090E09093CB008093CA003C
:1005C00008C01092D4001092D3001092CB00109269
:1005D000CA00FF91EF91BF91AF919F918F917F9151
:1005E0006F915F914F913F912F910F900FBE0F90A0
:1005F0001F9018951F920F920FB60F9211248F9390
:100600009F938CB18093CE0081E090E09093CD00D9
:100610008093CC009F918F910F900FBE0F901F90F1
:1006200018955D9BFECF8CB90895CF93DF93EC01B5
:10063000888118162CF42196F4DF89911816E4F3BA
:0A064000DF91CF910895F894FFCFE9
:10064A000A000A00C8000149646C650052756E0010
:10065A0053746F700052657365740054696D650058
:10066A00456E7465720A0D0043616E63656C0A0D0E
:10067A000055700A0D00446F776E0A0D004E6F6EBA
:10068A00650A0D0048616C66636C69636B0A0D004C
:10069A00436C69636B0A0D00446F6E650A0D0000B6
:00000001FF
