:1000000029C0000042C0000040C000003EC0000007
:100010003CC000003AC0000038C0000083C10000AE
:1000200034C0000032C0000030C000002EC000000C
:100030002CC000005AC2000028C0000026C00000EA
:1000400024C0000022C0000020C000001EC000002C
:100050001CC0000011241FBECFE5D8E0DEBFCDBF1D
:1000600010E0A0E6B0E0E6E5F7E002C005900D92F2
:10007000A03EB107D9F720E0A0EEB0E001C01D928C
:10008000AC3FB207E1F765D264C3BACFCF93DF9339
:10009000EC0160E083E000D185E690E035D160E0DE
:1000A00083E0FAD08091E200823091F128F4882335
:1000B00051F08130A1F098C0833009F44CC08430F5
:1000C00009F46DC091C088E790E01ED1219721F41A
:1000D00081E08093E20088C01092E20085C08DE745
:1000E00090E012D1C230D10541F0C430D10541F0C9
:1000F000219751F41092620077C01092E20074C010
:1001000082E08093E20070C081E08093E2006CC0E6
:1001100081E890E0F9D0C230D10571F01CF421974C
:1001200039F015C0C330D10551F0249761F00FC0EC
:1001300081E08093620058C01092E20055C081E0D7
:100140008093E20051C083E08093E2004DC082E0E2
:100150008093E20049C086E890E0D6D0C230D10555
:1001600079F01CF4219739F016C0C330D10559F04D
:10017000249769F010C01092E1001092E00034C0A2
:100180001092E20031C082E08093E2002DC084E052
:100190008093E20029C083E08093E20025C08CE8D0
:1001A00090E0B2D0C330D10541F0C430D10579F030
:1001B0002297B9F41092E20017C0809160009091EC
:1001C0006100019690936100809360000DC0809162
:1001D00060009091610001979093610080936000AE
:1001E00003C084E08093E20080916200DF91CF91B0
:1001F0000895959A00000000000000000000959806
:10020000089514BA929A9698AF9B03C0F2DFAF9903
:10021000FDCF8FEF84BB92980895CF93C82FF1DF65
:10022000969800000000C5BB87EC90E00197F1F7BD
:1002300000C00000DEDF15BA87EC90E00197F1F70F
:1002400000C00000CF9108958FEF84BB81B3846616
:1002500081BB92982FEF80E792E021508040904040
:10026000E1F700C0000081E0D8DF8FE39FE1019754
:10027000F1F700C0000088E3D0DF87EC90E0019741
:10028000F1F700C000008EE0C8DF87EC90E0019736
:10029000F1F700C000000895CF93DF9300D000D0A5
:1002A000CDB7DEB7198290E49A8394E19B8394E5FD
:1002B0009C83FE01E80FF11D8181860F8058ADDF20
:1002C00087EC90E00197F1F700C000000F900F90CD
:1002D0000F900F90DF91CF910895CF93C82F91DFAA
:1002E000969A00000000C5BB87EC90E00197F1F7FB
:1002F00000C000007EDF15BA87EC90E00197F1F7AF
:1003000000C00000CF910895CF93DF93EC01888166
:1003100018162CF42196E1DF89911816E4F3DF9189
:10032000CF9108951F920F920FB60F9211242F9321
:100330003F934F935F936F937F938F939F93AF936D
:10034000BF93EF93FF938091F0009091F10001969D
:100350009093F1008093F0008091F0009091F10073
:100360008039914054F081E090E09093F3008093C5
:10037000F2001092F1001092F0008091E80090914C
:10038000E90001969093E9008093E8008091E800ED
:100390009091E9000A97ECF01092E9001092E800C1
:1003A0008091E6009091E70001969093E70080939A
:1003B000E6008091E4009091E5004AE068EF70E08B
:1003C00095D19093F7008093F60082D18FEA90E068
:1003D0007FD18091E6009091E7000A976CF08091C0
:1003E000E4009091E50001969093E5008093E4008D
:1003F0001092E7001092E6002091E4003091E500B1
:100400008091600090916100281739073CF081E0ED
:100410008093EA001092E5001092E40086B390E029
:10042000809590958F709927181619060CF044C086
:100430008091F4009091F50001969093F5008093DF
:10044000F40081E0809363008091F4009091F500C6
:100450000597D4F18091EB009091EC00892BA1F5E8
:1004600086B390E0809590958F70992782309105A2
:1004700071F01CF4019739F016C08430910559F0E1
:10048000089769F010C081E08093E3000EC082E01D
:100490008093E3000AC083E08093E30006C084E019
:1004A0008093E30002C01092E30081E090E090931B
:1004B000EC008093EB0008C01092F5001092F4005D
:1004C0001092EC001092EB00FF91EF91BF91AF9171
:1004D0009F918F917F916F915F914F913F912F915C
:1004E0000F900FBE0F901F9018951F920F920FB68E
:1004F0000F9211248F939F938CB18093EF0081E032
:1005000090E09093EE008093ED009F918F910F907B
:100510000FBE0F901F901895939A81E990E0D8C074
:100520000895949A8DE990E0D3C008958091E000F9
:100530009091E10001969093E1008093E00082B3F6
:10054000877E82BB85EA90E0C3D081E08093630020
:10055000089580E884BF84BF10BC89E189B98AB15D
:1005600088698AB980B5866880BD87B3807F87BB7C
:1005700088B38F6088BB8EB58C608EBD81E792E0BA
:100580009BBD8ABD89B7806189BF789481B3886932
:1005900081BB5ADE2FEF83EC99E0215080409040E0
:1005A000E1F700C000008091ED009091EE00892BF2
:1005B00031F06FE080E070DE8091EF008EDE8091A0
:1005C000F2009091F300892B79F01092F3001092D1
:1005D000F200979A2FEF81EE94E0215080409040F6
:1005E000E1F700C0000097988091E30090E04EDDB5
:1005F0008093640080916400811104C08CEA90E0D3
:1006000067D003C082EB90E063D08091EA00813034
:10061000D9F480916400811117C07EDF2FEF81EE45
:1006200094E0215080409040E1F700C0000079DF65
:100630002FEF81EE94E0215080409040E1F700C020
:10064000000074DF1092EA001092E30080916300D2
:10065000813009F09FCF60E080E01EDE89EB90E002
:1006600053DE4AE068EF70E0809160009091610095
:100670003DD088EF90E048DE83E790E045DE60E023
:1006800081E00ADE86EC90E03FDE4AE068EF70E051
:100690008091E0009091E10029D088EF90E034DE75
:1006A00081E790E031DE60E082E0F6DD8091640079
:1006B000811104C08FEC90E027DE03C087ED90E04D
:1006C00023DE1092630066CF5D9BFECF8CB9089548
:1006D000CF93DF93EC01888118162CF42196F4DF78
:1006E00089911816E4F3DF91CF910895BB274A3022
:1006F00031F4992322F4BDE2909581959F4F01C07A
:10070000BB27FB015527AA27880F991FAA1FA417EB
:1007100010F0A41B83955051B9F7A05DAA3308F0DF
:10072000A95DA193009779F7B111B1931192CB0113
:1007300000C0DC01FC01672F71917723E1F732974C
:1007400004C07C916D9370836291AE17BF07C8F3AC
:060750000895F894FFCFAC
:10075600050001010120202020202020202020202B
:100766002020202020202000486F6D650052756EE5
:100776000053746F700052657365740054696D653B
:100786000048616C66636C69636B0A0D00436C69B3
:10079600636B0A0D00446F6E650A0D0052554E0AD2
:1007A6000D0053544F500A0D0044656C6179207456
:1007B600696D653A20004672616D65733A20005294
:1007C600756E6E696E670053746F707065640000B5
:00000001FF
