S0160000496E74657276616C6F6D657465722E737265633D
S113000029C0000042C0000040C000003EC0000003
S11300103CC000003AC0000038C0000019C1000014
S113002034C0000032C0000030C000002EC0000008
S11300302CC0000099C1000028C0000026C00000A8
S113004024C0000022C0000020C000001EC0000028
S11300501CC0000011241FBECFE5D8E0DEBFCDBF19
S113006010E0A0E6B0E0EEEBF3E002C005900D92E4
S1130070A837B107D9F720E0A8E7B0E001C01D9286
S1130080A938B207E1F78DD098C1BACF959A00008C
S113009000000000000000009598089514BA929A98
S11300A09698AF9B03C0F2DFAF99FDCF8FEF84BB6F
S11300B092980895CF93C82FF1DF9698000000001E
S11300C0C5BB87EC90E00197F1F700C00000DEDFCC
S11300D015BA87EC90E00197F1F700C00000CF91CA
S11300E008958FEF84BB81B3846681BB92982FEF10
S11300F080E792E0215080409040E1F700C000008A
S113010081E0D8DF8FE39FE10197F1F700C00000A1
S113011088E3D0DF87EC90E00197F1F700C000009E
S11301208EE0C8DF87EC90E00197F1F700C0000093
S11301300895CF93DF9300D000D0CDB7DEB71982F6
S113014090E49A8394E19B8394E59C83FE01E80FF9
S1130150F11D8181860F8058ADDF87EC90E0019717
S1130160F1F700C000000F900F900F900F90DF91F7
S1130170CF910895CF93C82F91DF969A0000000085
S1130180C5BB87EC90E00197F1F700C000007EDF6B
S113019015BA87EC90E00197F1F700C00000CF9109
S11301A0089580E884BF84BF10BC89E189B98AB10D
S11301B088698AB980B5866880BD87B3807F87BB2C
S11301C088B38F6088BB8EB58B608EBD8AEF90E05C
S11301D09BBD8ABD89B7806189BF78948F9A81DF7E
S11301E02FEF89E698E1215080409040E1F700C06C
S11301F0000080917E0090917F00892B31F06FE0A8
S113020080E097DF80918000B5DF8091830090913A
S11302108400892B39F082B3805882BB1092840009
S11302201092830080917900813019F480E690E087
S1130230B6D01092790080917800813019F488E664
S113024090E0ADD01092780081E790E0A8D0C8CFBC
S11302501F920F920FB60F9211242F938F939F9397
S11302608091810090918200019690938200809306
S113027081008091810090918200843F914054F0EC
S113028081E090E090938400809383001092820038
S113029010928100B09913C08091870090918800DA
S11302A001969093880080938700809187009091B5
S11302B08800449754F081E080937D0006C010923A
S11302C07D00109288001092870020917C0090910C
S11302D07D0081E0913009F080E0882341F081E0E5
S11302E0211180E0882319F081E0809379008091C6
S11302F07D0080937C00B19913C08091850090911A
S113030086000196909386008093850080918500F5
S113031090918600449754F081E080937B0006C05E
S113032010927B00109286001092850020917A0032
S113033090917B0081E0913009F080E0882341F0C6
S113034081E0211180E0882319F081E08093780016
S113035080917B0080937A009F918F912F910F90D1
S11303600FBE0F901F9018951F920F920FB60F9209
S113037011248F939F938CB18093800081E090E04F
S113038090937F0080937E009F918F910F900FBE7A
S11303900F901F9018955D9BFECF8CB90895CF9355
S11303A0DF93EC01888118162CF42196F4DF8991EF
S11103B01816E4F3DF91CF910895F894FFCF6F
S11303BE454E5445520A0D0043414E43454C0A0DD9
S10B03CE0049444C450A0D00EE
S9030000FC
