S0160000496E74657276616C6F6D657465722E737265633D
S113000029C0000042C0000040C000003EC0000003
S11300103CC000003AC0000038C000000EC100001F
S113002034C0000032C0000030C000002EC0000008
S11300302CC000002AC0000028C0000026C0000018
S113004024C0000022C0000020C000001EC0000028
S11300501CC0000011241FBECFE5D8E0DEBFCDBF19
S113006010E0A0E6B0E0ECE5F2E002C005900D92ED
S1130070AA3AB107D9F720E0AAEAB0E001C01D927C
S1130080AA3AB207E1F79BD0E7C0BACF959A00002D
S113009000000000000000009598089514BA929A98
S11300A09698AF9B03C0F2DFAF99FDCF8FEF84BB6F
S11300B092980895CF93C82FF1DF9698000000001E
S11300C0C5BB87EC90E00197F1F700C00000DEDFCC
S11300D015BA87EC90E00197F1F700C00000CF91CA
S11300E008958FEF84BB81B3846681BB92982FEF10
S11300F080E792E0215080409040E1F700C000008A
S113010081E0D8DF8FE39FE10197F1F700C00000A1
S113011088E3D0DF87EC90E00197F1F700C000009E
S11301208EE0C8DF87EC90E00197F1F700C0000093
S11301300895CF93DF9300D000D0CDB7DEB71982F6
S113014090E49A8394E19B8394E59C83FE01E80FF9
S1130150F11D8181860F8058ADDF87EC90E0019717
S1130160F1F700C000000F900F900F900F90DF91F7
S1130170CF910895CF93C82F91DF969A0000000085
S1130180C5BB87EC90E00197F1F700C000007EDF6B
S113019015BA87EC90E00197F1F700C00000CF9109
S11301A00895CF93DF93EC01888118162CF42196DF
S11301B0E1DF89911816E4F3DF91CF91089580E887
S11301C084BF84BF87B3807F87BB88B38F6088BBBD
S11301D08EB58B608EBD8AEF90E09BBD8ABD89B7DA
S11301E0806189BF78948F9A7CDF80E690E0D9DFC4
S11301F060E081E09EDF8FE690E0D3DF60E082E0A4
S113020098DF82E890E0CDDFB09907C060E083E03A
S113021090DF84E990E0C5DF06C060E083E089DF19
S11302208FE990E0BEDF2FEF81EE94E02150804013
S11302309040E1F700C00000E7CF1F920F920FB685
S11302400F9211248F9382B3805882BB8F910F90A9
S10F02500FBE0F901F901895F894FFCF7C
S113025C496E74657276616C6F6D6574657200437A
S113026C6F70797269676874204C41532032303155
S113027C3500456E74657220746F20636F6E7469FB
S113028C6E756500427574746F6E204F464600425D
S10D029C7574746F6E204F4E20003D
S9030000FC
