S0160000496E74657276616C6F6D657465722E737265633D
S113000029C0000042C0000040C000003EC0000003
S11300103CC000003AC0000038C00000D0C000005E
S113002034C0000032C0000030C000002EC0000008
S11300302CC000009EC1000028C0000026C00000A3
S113004024C0000022C0000020C000001EC0000028
S11300501CC0000011241FBECFE5D8E0DEBFCDBF19
S113006010E0A0E6B0E0E6ECF4E002C005900D92EA
S1130070AA3CB107D9F720E0AAECB0E001C01D9278
S1130080A13EB207E1F790D11CC2BACF959A000005
S113009000000000000000009598089514BA929A98
S11300A09698AF9B03C0F2DFAF99FDCF8FEF84BB6F
S11300B092980895CF93C82FF1DF9698000000001E
S11300C0C5BB87EC90E00197F1F700C00000DEDFCC
S11300D015BA87EC90E00197F1F700C00000CF91CA
S11300E008958FEF84BB81B3846681BB92982FEF10
S11300F080E792E0215080409040E1F700C000008A
S113010081E0D8DF8FE39FE10197F1F700C00000A1
S113011088E3D0DF87EC90E00197F1F700C000009E
S11301208EE0C8DF87EC90E00197F1F700C0000093
S11301300895CF93DF9300D000D0CDB7DEB71982F6
S113014090E49A8394E19B8394E59C83FE01E80FF9
S1130150F11D8181860F8058ADDF87EC90E0019717
S1130160F1F700C000000F900F900F900F90DF91F7
S1130170CF910895CF93C82F91DF969A0000000085
S1130180C5BB87EC90E00197F1F700C000007EDF6B
S113019015BA87EC90E00197F1F700C00000CF9109
S11301A00895CF93DF93EC01888118162CF42196DF
S11301B0E1DF89911816E4F3DF91CF9108951F923E
S11301C00F920FB60F9211242F938F939F938091C8
S11301D0CD009091CE0001969093CE008093CD00F7
S11301E08091CD009091CE00843F914054F081E005
S11301F090E09093D0008093CF001092CE001092A4
S1130200CD00B09916C08091DF009091E000019676
S11302109093E0008093DF008091DF009091E000F4
S11302204497DCF081E090E09093D8008093D7006D
S113023014C01092D8001092D7008091DF009091E2
S1130240E000181619064CF48091DF009091E0004C
S113025001979093E0008093DF00B19916C08091DC
S1130260DD009091DE0001969093DE008093DD0026
S11302708091DD009091DE004497DCF081E090E015
S11302809093D6008093D50014C01092D60010929B
S1130290D5008091DD009091DE00181619064CF40B
S11302A08091DD009091DE0001979093DE008093B1
S11302B0DD00B29916C08091DB009091DC000196BC
S11302C09093DC008093DB008091DB009091DC0054
S11302D04497DCF081E090E09093D4008093D300C5
S11302E014C01092D4001092D3008091DB0090913E
S11302F0DC00181619064CF48091DB009091DC00A8
S113030001979093DC008093DB00B39916C0809131
S1130310D9009091DA0001969093DA008093D90085
S11303208091D9009091DA004497DCF081E090E06C
S11303309093D2008093D10014C01092D2001092F6
S1130340D1008091D9009091DA00181619064CF466
S11303508091D9009091DA0001979093DA0080930C
S1130360D9009F918F912F910F900FBE0F901F90E6
S113037018951F920F920FB60F9211248F939F938B
S11303808CB18093CC0081E090E09093CB0080937B
S1130390CA009F918F910F900FBE0F901F901895D8
S11303A05D9BFECF8CB9089580E884BF84BF10BCE8
S11303B089E189B98AB188698AB980B5866880BDBE
S11303C087B3807F87BB88B38F6088BB8EB58B6013
S11303D08EBD8AEF90E09BBD8ABD89B7806189BFDD
S11303E078948F9A7EDE8091CA009091CB00892BFD
S11303F031F06FE080E09DDE8091CC00BBDE809127
S1130400CF009091D000892B39F082B3805882BB01
S11304101092D0001092CF008091D7009091D80014
S1130420892B49F060E080E084DE80E690E0B9DE6C
S113043080E3B6DF06C060E080E07BDE80E790E02A
S1130440B0DE8091D5009091D600892B49F060E010
S113045081E06FDE8CE790E0A4DE81E3A1DF06C0DB
S113046060E081E066DE8DE890E09BDE8091D30061
S11304709091D400892B49F060E082E05ADE8AE949
S113048090E08FDE82E38CDF06C060E082E051DE24
S113049087EA90E086DE8091D1009091D200892B8A
S11304A049F060E083E045DE80EB90E07ADE83E3B0
S11304B077DF99CF60E083E03CDE8FEB90E071DE84
S10904C092CFF894FFCF77
S11304C6456E746572205452554520202020200024
S11304D6456E7465722046414C53450043616E6314
S11304E6656C205452554520202020200043616E1F
S11304F663656C2046414C53450055502054525573
S11305064520202020200055502046414C534500CC
S1130516444F574E20545255452020202020004455
S10D05264F574E2046414C53450048
S9030000FC
